{
  "contractName": "StreamityEscrow",
  "abi": [
    {
      "constant": false,
      "inputs": [
        {
          "name": "_hashDeal",
          "type": "bytes32"
        },
        {
          "name": "_additionalGas",
          "type": "uint256"
        }
      ],
      "name": "releaseTokens",
      "outputs": [
        {
          "name": "",
          "type": "bool"
        }
      ],
      "payable": false,
      "stateMutability": "nonpayable",
      "type": "function"
    },
    {
      "constant": true,
      "inputs": [],
      "name": "STATUS_NO_DEAL",
      "outputs": [
        {
          "name": "",
          "type": "uint8"
        }
      ],
      "payable": false,
      "stateMutability": "view",
      "type": "function"
    },
    {
      "constant": true,
      "inputs": [],
      "name": "availableForWithdrawal",
      "outputs": [
        {
          "name": "",
          "type": "uint256"
        }
      ],
      "payable": false,
      "stateMutability": "view",
      "type": "function"
    },
    {
      "constant": true,
      "inputs": [
        {
          "name": "_hashDeal",
          "type": "bytes32"
        }
      ],
      "name": "getStatusDeal",
      "outputs": [
        {
          "name": "",
          "type": "uint8"
        }
      ],
      "payable": false,
      "stateMutability": "view",
      "type": "function"
    },
    {
      "constant": true,
      "inputs": [
        {
          "name": "",
          "type": "address"
        }
      ],
      "name": "availableForWithdrawalAltCoint",
      "outputs": [
        {
          "name": "",
          "type": "uint256"
        }
      ],
      "payable": false,
      "stateMutability": "view",
      "type": "function"
    },
    {
      "constant": true,
      "inputs": [],
      "name": "streamityContractAddress",
      "outputs": [
        {
          "name": "",
          "type": "address"
        }
      ],
      "payable": false,
      "stateMutability": "view",
      "type": "function"
    },
    {
      "constant": true,
      "inputs": [
        {
          "name": "",
          "type": "bytes32"
        }
      ],
      "name": "streamityTransfers",
      "outputs": [
        {
          "name": "value",
          "type": "uint256"
        },
        {
          "name": "cancelTime",
          "type": "uint256"
        },
        {
          "name": "seller",
          "type": "address"
        },
        {
          "name": "buyer",
          "type": "address"
        },
        {
          "name": "status",
          "type": "uint8"
        },
        {
          "name": "commission",
          "type": "uint256"
        },
        {
          "name": "isAltCoin",
          "type": "bool"
        }
      ],
      "payable": false,
      "stateMutability": "view",
      "type": "function"
    },
    {
      "constant": true,
      "inputs": [],
      "name": "STATUS_DEAL_RELEASE",
      "outputs": [
        {
          "name": "",
          "type": "uint8"
        }
      ],
      "payable": false,
      "stateMutability": "view",
      "type": "function"
    },
    {
      "constant": true,
      "inputs": [],
      "name": "STATUS_DEAL_APPROVE",
      "outputs": [
        {
          "name": "",
          "type": "uint8"
        }
      ],
      "payable": false,
      "stateMutability": "view",
      "type": "function"
    },
    {
      "constant": false,
      "inputs": [
        {
          "name": "_to",
          "type": "address"
        },
        {
          "name": "_amount",
          "type": "uint256"
        }
      ],
      "name": "withdrawCommisionToAddressAltCoin",
      "outputs": [],
      "payable": false,
      "stateMutability": "nonpayable",
      "type": "function"
    },
    {
      "constant": false,
      "inputs": [
        {
          "name": "_tradeID",
          "type": "bytes32"
        },
        {
          "name": "_seller",
          "type": "address"
        },
        {
          "name": "_buyer",
          "type": "address"
        },
        {
          "name": "_value",
          "type": "uint256"
        },
        {
          "name": "_commission",
          "type": "uint256"
        },
        {
          "name": "_sign",
          "type": "bytes"
        }
      ],
      "name": "payAltCoin",
      "outputs": [],
      "payable": false,
      "stateMutability": "nonpayable",
      "type": "function"
    },
    {
      "constant": false,
      "inputs": [
        {
          "name": "newAddress",
          "type": "address"
        }
      ],
      "name": "setStreamityContractAddress",
      "outputs": [],
      "payable": false,
      "stateMutability": "nonpayable",
      "type": "function"
    },
    {
      "constant": true,
      "inputs": [],
      "name": "requestCancellationTime",
      "outputs": [
        {
          "name": "",
          "type": "uint32"
        }
      ],
      "payable": false,
      "stateMutability": "view",
      "type": "function"
    },
    {
      "constant": false,
      "inputs": [
        {
          "name": "_to",
          "type": "address"
        },
        {
          "name": "_amount",
          "type": "uint256"
        }
      ],
      "name": "withdrawCommisionToAddress",
      "outputs": [],
      "payable": false,
      "stateMutability": "nonpayable",
      "type": "function"
    },
    {
      "constant": false,
      "inputs": [
        {
          "name": "_hashDeal",
          "type": "bytes32"
        },
        {
          "name": "_additionalGas",
          "type": "uint256"
        }
      ],
      "name": "cancelSeller",
      "outputs": [
        {
          "name": "",
          "type": "bool"
        }
      ],
      "payable": false,
      "stateMutability": "nonpayable",
      "type": "function"
    },
    {
      "constant": false,
      "inputs": [
        {
          "name": "_hashDeal",
          "type": "bytes32"
        }
      ],
      "name": "approveDeal",
      "outputs": [
        {
          "name": "",
          "type": "bool"
        }
      ],
      "payable": false,
      "stateMutability": "nonpayable",
      "type": "function"
    },
    {
      "constant": true,
      "inputs": [],
      "name": "STATUS_DEAL_WAIT_CONFIRMATION",
      "outputs": [
        {
          "name": "",
          "type": "uint8"
        }
      ],
      "payable": false,
      "stateMutability": "view",
      "type": "function"
    },
    {
      "constant": false,
      "inputs": [
        {
          "name": "newOwner",
          "type": "address"
        }
      ],
      "name": "transferOwnership",
      "outputs": [],
      "payable": false,
      "stateMutability": "nonpayable",
      "type": "function"
    },
    {
      "constant": false,
      "inputs": [
        {
          "name": "_tradeID",
          "type": "bytes32"
        },
        {
          "name": "_seller",
          "type": "address"
        },
        {
          "name": "_buyer",
          "type": "address"
        },
        {
          "name": "_value",
          "type": "uint256"
        },
        {
          "name": "_commission",
          "type": "uint256"
        },
        {
          "name": "_sign",
          "type": "bytes"
        }
      ],
      "name": "pay",
      "outputs": [],
      "payable": true,
      "stateMutability": "payable",
      "type": "function"
    },
    {
      "inputs": [
        {
          "name": "streamityContract",
          "type": "address"
        }
      ],
      "payable": false,
      "stateMutability": "nonpayable",
      "type": "constructor"
    },
    {
      "payable": true,
      "stateMutability": "payable",
      "type": "fallback"
    },
    {
      "anonymous": false,
      "inputs": [
        {
          "indexed": false,
          "name": "_hashDeal",
          "type": "bytes32"
        },
        {
          "indexed": false,
          "name": "_seller",
          "type": "address"
        },
        {
          "indexed": false,
          "name": "_buyer",
          "type": "address"
        }
      ],
      "name": "StartDealEvent",
      "type": "event"
    },
    {
      "anonymous": false,
      "inputs": [
        {
          "indexed": false,
          "name": "_hashDeal",
          "type": "bytes32"
        },
        {
          "indexed": false,
          "name": "_seller",
          "type": "address"
        },
        {
          "indexed": false,
          "name": "_buyer",
          "type": "address"
        }
      ],
      "name": "ApproveDealEvent",
      "type": "event"
    },
    {
      "anonymous": false,
      "inputs": [
        {
          "indexed": false,
          "name": "_hashDeal",
          "type": "bytes32"
        },
        {
          "indexed": false,
          "name": "_seller",
          "type": "address"
        },
        {
          "indexed": false,
          "name": "_buyer",
          "type": "address"
        }
      ],
      "name": "ReleasedEvent",
      "type": "event"
    },
    {
      "anonymous": false,
      "inputs": [
        {
          "indexed": false,
          "name": "_hashDeal",
          "type": "bytes32"
        },
        {
          "indexed": false,
          "name": "_seller",
          "type": "address"
        },
        {
          "indexed": false,
          "name": "_buyer",
          "type": "address"
        }
      ],
      "name": "SellerCancellEvent",
      "type": "event"
    },
    {
      "anonymous": false,
      "inputs": [
        {
          "indexed": true,
          "name": "previousOwner",
          "type": "address"
        },
        {
          "indexed": true,
          "name": "newOwner",
          "type": "address"
        }
      ],
      "name": "OwnershipTransferred",
      "type": "event"
    }
  ],
  "bytecode": "0x606060405260008060146101000a81548160ff021916908315150217905550341561002957600080fd5b60405160208061209c83398101604052808051906020019091905050336000806101000a81548173ffffffffffffffffffffffffffffffffffffffff021916908373ffffffffffffffffffffffffffffffffffffffff160217905550336000806101000a81548173ffffffffffffffffffffffffffffffffffffffff021916908373ffffffffffffffffffffffffffffffffffffffff160217905550611c20600360006101000a81548163ffffffff021916908363ffffffff16021790555080600160006101000a81548173ffffffffffffffffffffffffffffffffffffffff021916908373ffffffffffffffffffffffffffffffffffffffff16021790555050611f63806101396000396000f300606060405260043610610107576000357c0100000000000000000000000000000000000000000000000000000000900463ffffffff16806303b9b4f91461010957806330e9f6ed1461015157806335ba9af81461018057806341b6f6ce146101a9578063458918c7146101ea5780634f1fa7ef1461023757806353122f561461028c5780635937de14146103535780636583e239146103825780638b845c1d146103b157806392a93d33146103f3578063b0dbce711461047e578063c40de2b4146104b7578063e0f47580146104ec578063e5a178181461052e578063f28c071614610576578063f2dfa136146105b5578063f2fde38b146105e4578063fe908b7a1461061d575b005b341561011457600080fd5b61013760048080356000191690602001909190803590602001909190505061069d565b604051808215151515815260200191505060405180910390f35b341561015c57600080fd5b610164610aa7565b604051808260ff1660ff16815260200191505060405180910390f35b341561018b57600080fd5b610193610aac565b6040518082815260200191505060405180910390f35b34156101b457600080fd5b6101ce600480803560001916906020019091905050610ab2565b604051808260ff1660ff16815260200191505060405180910390f35b34156101f557600080fd5b610221600480803573ffffffffffffffffffffffffffffffffffffffff16906020019091905050610ae7565b6040518082815260200191505060405180910390f35b341561024257600080fd5b61024a610aff565b604051808273ffffffffffffffffffffffffffffffffffffffff1673ffffffffffffffffffffffffffffffffffffffff16815260200191505060405180910390f35b341561029757600080fd5b6102b1600480803560001916906020019091905050610b25565b604051808881526020018781526020018673ffffffffffffffffffffffffffffffffffffffff1673ffffffffffffffffffffffffffffffffffffffff1681526020018573ffffffffffffffffffffffffffffffffffffffff1673ffffffffffffffffffffffffffffffffffffffff1681526020018460ff1660ff1681526020018381526020018215151515815260200197505050505050505060405180910390f35b341561035e57600080fd5b610366610bc1565b604051808260ff1660ff16815260200191505060405180910390f35b341561038d57600080fd5b610395610bc6565b604051808260ff1660ff16815260200191505060405180910390f35b34156103bc57600080fd5b6103f1600480803573ffffffffffffffffffffffffffffffffffffffff16906020019091908035906020019091905050610bcb565b005b34156103fe57600080fd5b61047c60048080356000191690602001909190803573ffffffffffffffffffffffffffffffffffffffff1690602001909190803573ffffffffffffffffffffffffffffffffffffffff169060200190919080359060200190919080359060200190919080359060200190820180359060200191909192905050610c2a565b005b341561048957600080fd5b6104b5600480803573ffffffffffffffffffffffffffffffffffffffff16906020019091905050610e6b565b005b34156104c257600080fd5b6104ca610f0a565b604051808263ffffffff1663ffffffff16815260200191505060405180910390f35b34156104f757600080fd5b61052c600480803573ffffffffffffffffffffffffffffffffffffffff16906020019091908035906020019091905050610f20565b005b341561053957600080fd5b61055c600480803560001916906020019091908035906020019091905050610fe6565b604051808215151515815260200191505060405180910390f35b341561058157600080fd5b61059b600480803560001916906020019091905050611461565b604051808215151515815260200191505060405180910390f35b34156105c057600080fd5b6105c861166e565b604051808260ff1660ff16815260200191505060405180910390f35b34156105ef57600080fd5b61061b600480803573ffffffffffffffffffffffffffffffffffffffff16906020019091905050611673565b005b61069b60048080356000191690602001909190803573ffffffffffffffffffffffffffffffffffffffff1690602001909190803573ffffffffffffffffffffffffffffffffffffffff1690602001909190803590602001909190803590602001909190803590602001908201803590602001919091929050506117c8565b005b60008060008060149054906101000a900460ff161515156106bd57600080fd5b6001600060146101000a81548160ff0219169083151502179055506005600086600019166000191681526020019081526020016000209150600015158260050160009054906101000a900460ff16151514151561071957600080fd5b600260ff168260030160149054906101000a900460ff1660ff161415610a805760038260030160146101000a81548160ff021916908360ff16021790555060009050600015158260050160009054906101000a900460ff161515141561084b576108448260030160009054906101000a900473ffffffffffffffffffffffffffffffffffffffff16836000015461083f6000809054906101000a900473ffffffffffffffffffffffffffffffffffffffff1673ffffffffffffffffffffffffffffffffffffffff163373ffffffffffffffffffffffffffffffffffffffff161461080457600061082c565b61082b3a61081d8a61571c6119ce90919063ffffffff16565b6119ec90919063ffffffff16565b5b86600401546119ce90919063ffffffff16565b611a1f565b90506108a8565b6108a5600160009054906101000a900473ffffffffffffffffffffffffffffffffffffffff168360030160009054906101000a900473ffffffffffffffffffffffffffffffffffffffff1684600001548560040154611ac2565b90505b6000151581151514156108dc5760028260030160146101000a81548160ff021916908360ff16021790555060009250610a85565b7ff6fa827616c433d804e6640e57ef007771e25349e04446dfe9c048a69b4aef77858360020160009054906101000a900473ffffffffffffffffffffffffffffffffffffffff168460030160009054906101000a900473ffffffffffffffffffffffffffffffffffffffff166040518084600019166000191681526020018373ffffffffffffffffffffffffffffffffffffffff1673ffffffffffffffffffffffffffffffffffffffff1681526020018273ffffffffffffffffffffffffffffffffffffffff1673ffffffffffffffffffffffffffffffffffffffff168152602001935050505060405180910390a160056000866000191660001916815260200190815260200160002060008082016000905560018201600090556002820160006101000a81549073ffffffffffffffffffffffffffffffffffffffff02191690556003820160006101000a81549073ffffffffffffffffffffffffffffffffffffffff02191690556003820160146101000a81549060ff021916905560048201600090556005820160006101000a81549060ff0219169055505060019250610a85565b600092505b60008060146101000a81548160ff021916908315150217905550505092915050565b600081565b60025481565b600060056000836000191660001916815260200190815260200160002060030160149054906101000a900460ff169050919050565b60046020528060005260406000206000915090505481565b600160009054906101000a900473ffffffffffffffffffffffffffffffffffffffff1681565b60056020528060005260406000206000915090508060000154908060010154908060020160009054906101000a900473ffffffffffffffffffffffffffffffffffffffff16908060030160009054906101000a900473ffffffffffffffffffffffffffffffffffffffff16908060030160149054906101000a900460ff16908060040154908060050160009054906101000a900460ff16905087565b600381565b600281565b6000809054906101000a900473ffffffffffffffffffffffffffffffffffffffff1673ffffffffffffffffffffffffffffffffffffffff163373ffffffffffffffffffffffffffffffffffffffff16141515610c2657600080fd5b5050565b60008088888888886040518086600019166000191681526020018573ffffffffffffffffffffffffffffffffffffffff1673ffffffffffffffffffffffffffffffffffffffff166c010000000000000000000000000281526014018473ffffffffffffffffffffffffffffffffffffffff1673ffffffffffffffffffffffffffffffffffffffff166c010000000000000000000000000281526014018381526020018281526020019550505050505060405180910390209150610d1f8285858080601f016020809104026020016040519081016040528093929190818152602001838380828437820191505050505050611b9d565b600160009054906101000a900473ffffffffffffffffffffffffffffffffffffffff1673ffffffffffffffffffffffffffffffffffffffff166323b872dd3330896000604051602001526040518463ffffffff167c0100000000000000000000000000000000000000000000000000000000028152600401808473ffffffffffffffffffffffffffffffffffffffff1673ffffffffffffffffffffffffffffffffffffffff1681526020018373ffffffffffffffffffffffffffffffffffffffff1673ffffffffffffffffffffffffffffffffffffffff1681526020018281526020019350505050602060405180830381600087803b1515610e2057600080fd5b6102c65a03f11515610e3157600080fd5b50505060405180519050905060011515811515141515610e5057600080fd5b610e5f828989888a6001611d44565b50505050505050505050565b6000809054906101000a900473ffffffffffffffffffffffffffffffffffffffff1673ffffffffffffffffffffffffffffffffffffffff163373ffffffffffffffffffffffffffffffffffffffff16141515610ec657600080fd5b80600160006101000a81548173ffffffffffffffffffffffffffffffffffffffff021916908373ffffffffffffffffffffffffffffffffffffffff16021790555050565b600360009054906101000a900463ffffffff1681565b6000809054906101000a900473ffffffffffffffffffffffffffffffffffffffff1673ffffffffffffffffffffffffffffffffffffffff163373ffffffffffffffffffffffffffffffffffffffff16141515610f7b57600080fd5b6002548111151515610f8c57600080fd5b610fa181600254611f1e90919063ffffffff16565b508173ffffffffffffffffffffffffffffffffffffffff166108fc829081150290604051600060405180830381858888f193505050501515610fe257600080fd5b5050565b60008060008060009054906101000a900473ffffffffffffffffffffffffffffffffffffffff1673ffffffffffffffffffffffffffffffffffffffff163373ffffffffffffffffffffffffffffffffffffffff1614151561104657600080fd5b600060149054906101000a900460ff1615151561106257600080fd5b6001600060146101000a81548160ff0219169083151502179055506005600086600019166000191681526020019081526020016000209150600015158260050160009054906101000a900460ff1615151415156110be57600080fd5b42826001015411156110d3576000925061143f565b600160ff168260030160149054906101000a900460ff1660ff16141561143a5760038260030160146101000a81548160ff021916908360ff16021790555060009050600015158260050160009054906101000a900460ff1615151415611205576111fe8260030160009054906101000a900473ffffffffffffffffffffffffffffffffffffffff1683600001546111f96000809054906101000a900473ffffffffffffffffffffffffffffffffffffffff1673ffffffffffffffffffffffffffffffffffffffff163373ffffffffffffffffffffffffffffffffffffffff16146111be5760006111e6565b6111e53a6111d78a61571c6119ce90919063ffffffff16565b6119ec90919063ffffffff16565b5b86600401546119ce90919063ffffffff16565b611a1f565b9050611262565b61125f600160009054906101000a900473ffffffffffffffffffffffffffffffffffffffff168360030160009054906101000a900473ffffffffffffffffffffffffffffffffffffffff1684600001548560040154611ac2565b90505b6000151581151514156112965760018260030160146101000a81548160ff021916908360ff1602179055506000925061143f565b7f55b683098b197c82dea6dd5b421ef8021f926958f5b9d964d04575bb6bd7bcad858360020160009054906101000a900473ffffffffffffffffffffffffffffffffffffffff168460030160009054906101000a900473ffffffffffffffffffffffffffffffffffffffff166040518084600019166000191681526020018373ffffffffffffffffffffffffffffffffffffffff1673ffffffffffffffffffffffffffffffffffffffff1681526020018273ffffffffffffffffffffffffffffffffffffffff1673ffffffffffffffffffffffffffffffffffffffff168152602001935050505060405180910390a160056000866000191660001916815260200190815260200160002060008082016000905560018201600090556002820160006101000a81549073ffffffffffffffffffffffffffffffffffffffff02191690556003820160006101000a81549073ffffffffffffffffffffffffffffffffffffffff02191690556003820160146101000a81549060ff021916905560048201600090556005820160006101000a81549060ff021916905550506001925061143f565b600092505b60008060146101000a81548160ff021916908315150217905550505092915050565b6000806000809054906101000a900473ffffffffffffffffffffffffffffffffffffffff1673ffffffffffffffffffffffffffffffffffffffff163373ffffffffffffffffffffffffffffffffffffffff161415156114bf57600080fd5b600060149054906101000a900460ff161515156114db57600080fd5b6001600060146101000a81548160ff0219169083151502179055506005600084600019166000191681526020019081526020016000209050600160ff168160030160149054906101000a900460ff1660ff1614156116495760028160030160146101000a81548160ff021916908360ff1602179055507fa2cd0f243a44961385e90ee4cca3f1581e1014788936e12115c211265f34fbcb838260020160009054906101000a900473ffffffffffffffffffffffffffffffffffffffff168360030160009054906101000a900473ffffffffffffffffffffffffffffffffffffffff166040518084600019166000191681526020018373ffffffffffffffffffffffffffffffffffffffff1673ffffffffffffffffffffffffffffffffffffffff1681526020018273ffffffffffffffffffffffffffffffffffffffff1673ffffffffffffffffffffffffffffffffffffffff168152602001935050505060405180910390a16001915061164e565b600091505b60008060146101000a81548160ff02191690831515021790555050919050565b600181565b6000809054906101000a900473ffffffffffffffffffffffffffffffffffffffff1673ffffffffffffffffffffffffffffffffffffffff163373ffffffffffffffffffffffffffffffffffffffff161415156116ce57600080fd5b600073ffffffffffffffffffffffffffffffffffffffff168173ffffffffffffffffffffffffffffffffffffffff161415151561170a57600080fd5b8073ffffffffffffffffffffffffffffffffffffffff166000809054906101000a900473ffffffffffffffffffffffffffffffffffffffff1673ffffffffffffffffffffffffffffffffffffffff167f8be0079c531659141344cd1fd0a4f28419497f9722a3daafe3b4186f6b6457e060405160405180910390a3806000806101000a81548173ffffffffffffffffffffffffffffffffffffffff021916908373ffffffffffffffffffffffffffffffffffffffff16021790555050565b600080341115156117d857600080fd5b84341415156117e657600080fd5b87878734876040518086600019166000191681526020018573ffffffffffffffffffffffffffffffffffffffff1673ffffffffffffffffffffffffffffffffffffffff166c010000000000000000000000000281526014018473ffffffffffffffffffffffffffffffffffffffff1673ffffffffffffffffffffffffffffffffffffffff166c0100000000000000000000000002815260140183815260200182815260200195505050505050604051809103902090506000809054906101000a900473ffffffffffffffffffffffffffffffffffffffff1673ffffffffffffffffffffffffffffffffffffffff16816000191673__ECRecovery____________________________6319045a25909186866000604051602001526040518463ffffffff167c0100000000000000000000000000000000000000000000000000000000028152600401808460001916600019168152602001806020018281038252848482818152602001925080828437820191505094505050505060206040518083038186803b151561197757600080fd5b6102c65a03f4151561198857600080fd5b5050506040518051905073ffffffffffffffffffffffffffffffffffffffff161415156119b457600080fd5b6119c381888887346000611d44565b505050505050505050565b60008082840190508381101515156119e257fe5b8091505092915050565b60008082840290506000841480611a0d5750828482811515611a0a57fe5b04145b1515611a1557fe5b8091505092915050565b600080829050600254611a3d826002546119ce90919063ffffffff16565b111515611a4957600080fd5b611a5e816002546119ce90919063ffffffff16565b6002819055508473ffffffffffffffffffffffffffffffffffffffff166108fc611a918387611f1e90919063ffffffff16565b9081150290604051600060405180830381858888f193505050501515611ab657600080fd5b60019150509392505050565b6000808290508573ffffffffffffffffffffffffffffffffffffffff1663a9059cbb86611af88488611f1e90919063ffffffff16565b6040518363ffffffff167c0100000000000000000000000000000000000000000000000000000000028152600401808373ffffffffffffffffffffffffffffffffffffffff1673ffffffffffffffffffffffffffffffffffffffff16815260200182815260200192505050600060405180830381600087803b1515611b7c57600080fd5b6102c65a03f11515611b8d57600080fd5b5050506001915050949350505050565b6000809054906101000a900473ffffffffffffffffffffffffffffffffffffffff1673ffffffffffffffffffffffffffffffffffffffff16826000191673__ECRecovery____________________________6319045a259091846000604051602001526040518363ffffffff167c010000000000000000000000000000000000000000000000000000000002815260040180836000191660001916815260200180602001828103825283818151815260200191508051906020019080838360005b83811015611c79578082015181840152602081019050611c5e565b50505050905090810190601f168015611ca65780820380516001836020036101000a031916815260200191505b50935050505060206040518083038186803b1515611cc357600080fd5b6102c65a03f41515611cd457600080fd5b5050506040518051905073ffffffffffffffffffffffffffffffffffffffff16141515611d0057600080fd5b600060ff1660056000846000191660001916815260200190815260200160002060030160149054906101000a900460ff1660ff16141515611d4057600080fd5b5050565b6000806005600089600019166000191681526020019081526020016000209050868160020160006101000a81548173ffffffffffffffffffffffffffffffffffffffff021916908373ffffffffffffffffffffffffffffffffffffffff160217905550858160030160006101000a81548173ffffffffffffffffffffffffffffffffffffffff021916908373ffffffffffffffffffffffffffffffffffffffff160217905550838160000181905550848160040181905550611e27600360009054906101000a900463ffffffff1663ffffffff16426119ce90919063ffffffff16565b816001018190555060018160030160146101000a81548160ff021916908360ff160217905550828160050160006101000a81548160ff0219169083151502179055507fbefa990333ef4d20a2b9cec2b1901be2750b757182f35d2373675ed20d3a0f1f8888886040518084600019166000191681526020018373ffffffffffffffffffffffffffffffffffffffff1673ffffffffffffffffffffffffffffffffffffffff1681526020018273ffffffffffffffffffffffffffffffffffffffff1673ffffffffffffffffffffffffffffffffffffffff168152602001935050505060405180910390a1879150509695505050505050565b6000828211151515611f2c57fe5b8183039050929150505600a165627a7a723058200f8fddb587fa6d3e4811d2da66f4513f0a6656e18590471989fc4cd24cd8a4900029",
  "source": "pragma solidity ^0.4.18;\r\n\r\nimport './Streamity/StreamityContract.sol';\r\nimport './Zeppelin/ReentrancyGuard.sol';\r\nimport './Zeppelin/ECRecovery.sol';\r\n\r\ncontract StreamityEscrow is Ownable, ReentrancyGuard {\r\n    using SafeMath for uint256;\r\n    using ECRecovery for bytes32;\r\n\t\r\n    uint8 constant public STATUS_NO_DEAL = 0x0;\r\n    uint8 constant public STATUS_DEAL_WAIT_CONFIRMATION = 0x01;\r\n    uint8 constant public STATUS_DEAL_APPROVE = 0x02;\r\n    uint8 constant public STATUS_DEAL_RELEASE = 0x03;\r\n\t\r\n\tTokenERC20 public streamityContractAddress;\r\n    \r\n    uint256 public availableForWithdrawal;\r\n\r\n    uint32 public requestCancellationTime;\r\n\r\n    mapping(address => uint256) public availableForWithdrawalAltCoint; // TODO \r\n\r\n    mapping(bytes32 => Deal) public streamityTransfers;\r\n\r\n    function StreamityEscrow(address streamityContract) public {\r\n        owner = msg.sender; \r\n        requestCancellationTime = 2 hours;\r\n        streamityContractAddress = TokenERC20(streamityContract); // TODO Stm contract adrress\r\n    }\r\n\r\n    struct Deal {\r\n        uint256 value;\r\n        uint256 cancelTime;\r\n        address seller;\r\n        address buyer;\r\n        uint8 status;\r\n        uint256 commission;\r\n        bool isAltCoin;\r\n    }\r\n\r\n\r\n    event StartDealEvent(bytes32 _hashDeal, address _seller, address _buyer);\r\n    event ApproveDealEvent(bytes32 _hashDeal, address _seller, address _buyer);\r\n    event ReleasedEvent(bytes32 _hashDeal, address _seller, address _buyer);\r\n    event SellerCancellEvent(bytes32 _hashDeal, address _seller, address _buyer);\r\n    \r\n    function pay(bytes32 _tradeID, address _seller, address _buyer, uint256 _value, uint256 _commission, bytes _sign) \r\n    external \r\n    payable \r\n    {\r\n        require(msg.value > 0);\r\n        require(msg.value == _value);\r\n        bytes32 _hashDeal = keccak256(_tradeID, _seller, _buyer, msg.value, _commission);\r\n        require(_hashDeal.recover(_sign) == owner);\r\n        startDealForUser(_hashDeal, _seller, _buyer, _commission, msg.value, false);\r\n    }\r\n\t\r\n\tfunction () public payable {}\r\n\r\n    function payAltCoin(bytes32 _tradeID, address _seller, address _buyer, uint256 _value, uint256 _commission, bytes _sign) \r\n    external \r\n    {\r\n        bytes32 _hashDeal = keccak256(_tradeID, _seller, _buyer, _value, _commission);\r\n        verifyDeal(_hashDeal, _sign);\r\n        bool result = TokenERC20(streamityContractAddress).transferFrom(msg.sender, address(this), _value);\r\n        require(result == true);\r\n        startDealForUser(_hashDeal, _seller, _buyer, _commission, _value, true);\r\n    }\r\n\r\n    function verifyDeal(bytes32 _hashDeal, bytes _sign) private view {\r\n        require(_hashDeal.recover(_sign) == owner);\r\n        require(streamityTransfers[_hashDeal].status == STATUS_NO_DEAL); \r\n    }\r\n\r\n    function startDealForUser(bytes32 _hashDeal, address _seller, address _buyer, uint256 _commission, uint256 _value, bool isAltCoin) \r\n    private returns(bytes32) \r\n    {\r\n        Deal storage userDeals = streamityTransfers[_hashDeal];\r\n        userDeals.seller = _seller;\r\n        userDeals.buyer = _buyer;\r\n        userDeals.value = _value; \r\n        userDeals.commission = _commission; \r\n        userDeals.cancelTime = block.timestamp.add(requestCancellationTime); \r\n        userDeals.status = STATUS_DEAL_WAIT_CONFIRMATION;\r\n        userDeals.isAltCoin = isAltCoin;\r\n        \r\n        StartDealEvent(_hashDeal, _seller, _buyer);\r\n        \r\n        return _hashDeal;\r\n    }\r\n\r\n    function withdrawCommisionToAddress(address _to, uint256 _amount) external onlyOwner {\r\n        require(_amount <= availableForWithdrawal); \r\n        availableForWithdrawal.sub(_amount);\r\n        _to.transfer(_amount);\r\n    }\r\n\r\n    function withdrawCommisionToAddressAltCoin(address _to, uint256 _amount) external onlyOwner {\r\n        \r\n    }\r\n\r\n    function getStatusDeal(bytes32 _hashDeal) external view returns (uint8) {\r\n        return streamityTransfers[_hashDeal].status;\r\n    }\r\n    \r\n    // _additionalComission is wei\r\n    uint256 constant GAS_releaseTokens = 22300;\r\n    function releaseTokens(bytes32 _hashDeal, uint256 _additionalGas) \r\n    external \r\n\tnonReentrant\r\n    \t\r\n\treturns(bool) \r\n    {\r\n        Deal storage deal = streamityTransfers[_hashDeal];\r\n        require(deal.isAltCoin == false);\r\n        if (deal.status == STATUS_DEAL_APPROVE) {\r\n            deal.status = STATUS_DEAL_RELEASE; \r\n            bool result = false;\r\n\r\n            if(deal.isAltCoin == false)\r\n                result = transferMinusComission(deal.buyer, deal.value, deal.commission.add((msg.sender == owner ? (GAS_releaseTokens.add(_additionalGas)).mul(tx.gasprice) : 0)));\r\n            else \r\n                result = transferMinusComissionAltCoin(streamityContractAddress, deal.buyer, deal.value, deal.commission);\r\n\r\n            if (result == false) {\r\n                deal.status = STATUS_DEAL_APPROVE; \r\n                return false;   \r\n            }\r\n\r\n            ReleasedEvent(_hashDeal, deal.seller, deal.buyer);\r\n            delete streamityTransfers[_hashDeal];\r\n            return true;\r\n        }\r\n        \r\n        return false;\r\n    }\r\n\r\n    uint256 constant GAS_cancelSeller= 23000;\r\n    function cancelSeller(bytes32 _hashDeal, uint256 _additionalGas) \r\n    external onlyOwner \r\n\tnonReentrant\t\r\n\treturns(bool)  \r\n    {\r\n\r\n        Deal storage deal = streamityTransfers[_hashDeal];\r\n        require(deal.isAltCoin == false);\r\n\r\n        if (deal.cancelTime > block.timestamp)\r\n            return false;\r\n\r\n        if (deal.status == STATUS_DEAL_WAIT_CONFIRMATION) {\r\n            deal.status = STATUS_DEAL_RELEASE; \r\n\r\n            bool result = false;\r\n            if(deal.isAltCoin == false)\r\n                result = transferMinusComission(deal.buyer, deal.value, deal.commission.add((msg.sender == owner ? (GAS_releaseTokens.add(_additionalGas)).mul(tx.gasprice) : 0)));\r\n            else \r\n                result = transferMinusComissionAltCoin(streamityContractAddress, deal.buyer, deal.value, deal.commission);\r\n\r\n            if (result == false) {\r\n                deal.status = STATUS_DEAL_WAIT_CONFIRMATION; \r\n                return false;   \r\n            }\r\n\r\n            SellerCancellEvent(_hashDeal, deal.seller, deal.buyer);\r\n            delete streamityTransfers[_hashDeal];\r\n            return true;\r\n        }\r\n        \r\n        return false;\r\n    }\r\n\r\n    function approveDeal(bytes32 _hashDeal) \r\n    external \r\n\tonlyOwner \r\n\tnonReentrant\t\r\n\treturns(bool) \r\n    {\r\n        Deal storage deal = streamityTransfers[_hashDeal];\r\n        \r\n        if (deal.status == STATUS_DEAL_WAIT_CONFIRMATION) {\r\n            deal.status = STATUS_DEAL_APPROVE;\r\n            ApproveDealEvent(_hashDeal, deal.seller, deal.buyer);\r\n            return true;\r\n        }\r\n        \r\n        return false;\r\n    }\r\n\r\n    function transferMinusComission(address _to, uint256 _value, uint256 _commission) \r\n    private returns(bool) \r\n    {\r\n        uint256 _totalComission = _commission; \r\n        \r\n        require(availableForWithdrawal.add(_totalComission) > availableForWithdrawal); // Check for overflows\r\n\r\n        availableForWithdrawal = availableForWithdrawal.add(_totalComission); \r\n\r\n        _to.transfer(_value.sub(_totalComission));\r\n        return true;\r\n    }\r\n\r\n    function transferMinusComissionAltCoin(address _contract, address _to, uint256 _value, uint256 _commission) \r\n    private returns(bool) \r\n    {\r\n        uint256 _totalComission = _commission; \r\n        TokenERC20(_contract).transfer(_to, _value.sub(_totalComission));\r\n        return true;\r\n    }\r\n\r\n    function setStreamityContractAddress(address newAddress) \r\n    external onlyOwner \r\n    {\r\n        streamityContractAddress = TokenERC20(newAddress);\r\n    }\r\n\t\r\n}\r\n\r\n\r\n",
  "sourcePath": "G:\\dev\\streamity-develop\\contracts\\StreamityEscrow.sol",
  "compiler": {
    "name": "solc",
    "version": "0.4.18+commit.9cf6e910.Emscripten.clang"
  },
  "schemaVersion": "1.0.1",
  "updatedAt": "2018-02-28T12:05:49.374Z"
}